:1000000000400020C1000000F1A30000E7E4000070
:1000100000000000000000000000000000000000E0
:10002000000000000000000000000000F1A300003C
:100030000000000000000000F1A30000F1A3000098
:10004000F1A30000F1A30000F1A30000F1A3000060
:10005000F1A30000F1A30000F1A30000F1A3000050
:10006000F1A30000F1A30000F1A30000F1A3000040
:10007000F1A30000F1A30000F1A30000F1A3000030
:10008000F1A30000F1A30000F1A30000F1A3000020
:10009000F1A30000F1A30000F1A30000F1A3000010
:1000A000F1A30000F1A30000F1A30000F1A3000000
:1000B000F1A30000F1A30000F1A30000F1A30000F0
:1000C0000024E443A6460AF094F9A64609480A49E2
:1000D0000022814201D004C0FBE708480849094AD0
:1000E000814202D008CA08C0FAE700B50AF0A2F9B6
:1000F00000DE0000C00000201C05002000000020E1
:10010000C0000020E8F8000080B500AF88B00023F0
:100110000593074C049402930123019306AB0093CB
:1001200007910690684611460AF01BF8FEDEC046AD
:100130005CE6000080B500AF8CB001910090022019
:10014000079008A9069100210491039006480290A7
:1001500006480B9001A90A9109906846089002A8E8
:10016000034909F0FEFFFEDE5CE60000210400000A
:100170006CE60000F0B503AF87B00246C01C032553
:10018000A843841A8C42069518D8042C16D80B1B49
:10019000042B13D3019402932B4003930024904229
:1001A000049400D18CE0019B194629400091D14371
:1001B000401803284AD20024114667E0002909D0DC
:1001C0000C462C40481E032807D20020002C26D1C4
:1001D00007B0F0BD002007B0F0BD0594A94300248E
:1001E000234602E0121D091F15D001251657402095
:1001F000C043864200DD5B1C5557854200DD5B1C19
:1002000002255557854200DD5B1C069D55578542EA
:10021000E8DD5B1CE6E71846059C002CD8D00021E1
:1002200051564023DB43994200DD401C012CCFD0C6
:1002300001215156994200DD401C022CC8D00221F8
:1002400051569942C4DD401C07B0F0BDAB430024B9
:100250000594114602E0091D1B1F16D001260598C2
:100260000D564020C043854200DD641C8D578542F9
:1002700000DD641C02254D57854200DD641C069D8F
:100280004D578542E7DD641CE5E7069D0098002890
:1002900016D000200B564020C043834200DD641C72
:1002A000009B012B0CD00123CB56834200DD641C44
:1002B000009B022B04D00223C956814200DD641C3E
:1002C00001981618039800281FD00298A8433018E8
:1002D0000021049142564021C9438A4201DD012296
:1002E0000492039A012A10D0012282568A4202DD2A
:1002F000049A521C0492039A022A06D002228056C3
:10030000884202DD0498401C0490029881080498F9
:1003100000190590414C18E00025039E0198361AFB
:10032000029B009818180390280A3B490D4008408A
:10033000401938494843000C059941180591314648
:10034000039E04980028069D3BD1002936D03346F1
:10035000C02903910A4600D3C022104628400490C9
:1003600090000090FC21019211408A009A18002907
:100370000293D1D0002519460029CED048688309C0
:10038000C043C009184320400B689E09DB43DB09CA
:10039000334323405B1918188B689D09DB43DB0945
:1003A0002B432340C018CB689D09DB43DB092B435B
:1003B0002340C51810319142DED1AEE7059807B051
:1003C000F0BD002B19D010688109C043C5090498FD
:1003D0000D432540012811D051688B09C943C90933
:1003E000194321404D19022808D091688A09C94350
:1003F000C909114321404D1900E000250598290A3B
:10040000054A154011404919024A4A43110C08187F
:1004100007B0F0BD01000100FF00FF000101010174
:10042000F0B503AF8FB002910268344B34492726F0
:100430008A422DD315460496284631490DF0A0FA7C
:1004400003903049414349198AB292082E484243E9
:10045000520C53002D48C05C05ACA419261F307007
:100460002A48C018254B40787070049E5A43501893
:1004700080B240002549095CA21E1170234908186A
:1004800040785070039A361F214885421546D2D8CD
:10049000632A1ED990B280081B494143490C4B4343
:1004A000981880B24000194A135CB61E05ACA355DB
:1004B000A3191018407858700A290DD34900134A1F
:1004C000535CB01E05AC2354231851184978597059
:1004D00006E011460A29F1D2701E303105AA1154E6
:1004E0002721091A019105A9081800900121094A3C
:1004F0000023029809F037FE0FB0F0BD9CFF00000A
:1005000010270000F0D800007B140000ACF00000C1
:10051000FFE0F5055CE60000B0B502AF82B081787F
:10052000002916D10121817001A8002101700C4C15
:10053000E06A03210140022901D00B4D00E0094D82
:10054000183401A901222046A8470028F9D0012823
:1005500001D102B0B0BD0121044A09F044FFFEDE22
:1005600000000020C507000011A400009CE6000068
:10057000F0B503AF8BB0002A00D1A2E00B4689187A
:1005800003910478574D04901978E6B2072E05932D
:1005900017D200294AD0344606A80170E86A032120
:1005A00001400229504E00D0504E2846183006A96E
:1005B0000122B0470028F8D0012800D08DE026465F
:1005C00039E000295CD0029608A80170E86A03218E
:1005D000019108400228444C00D0444C2E46183665
:1005E00008A901223046A0470028F7D0012874D17D
:1005F0000298441CE1B20A1B531E9A41A14266D1E3
:10060000049804708629059B54D109A8FF21017024
:10061000E86A019908400228334C00D0334C09A9FC
:1006200001223046A0470028F9D03CE00122B24028
:10063000417811434170741CE1B20A1B531E9A4168
:10064000A14240D104980470072938D1417800298B
:10065000059B2FD01C4607A80170E86A03210140C2
:100660000229214E00D0214E2846183007A9012228
:10067000B0470028F8D001282FD10498234616E06F
:100680007934802121430AA80170E86A03210140DE
:100690000229154C00D0154C284618300AA9012211
:1006A000A0470028F8D0012817D1059B0498002402
:1006B000447004705B1C03998B4202D064E7059B75
:1006C000F8E70BB0F0BD0B481C210C4A02E00948CA
:1006D0001C21094AFFF718FDFEDE0121044A09F03A
:1006E00082FEFEDE00000020C507000011A400000D
:1006F0009CE60000F0E500008CE600007CE60000CF
:10070000F0B503AF85B006460078002832D0062841
:1007100010D80021C9438140707808437F210140EF
:1007200003A80170234DE86A0321014002290ED07D
:10073000224C0DE079308021014304A801701D4D49
:10074000E86A0321014002290AD01C4C09E01A4C36
:10075000183503A901222846A0470028F9D007E050
:10076000154C183504A901222846A0470028F9D0C5
:1007700001281AD1019602A8002606700D4DE86ADC
:1007800003210140022901D00C4C00E00A4C18352D
:1007900002A901222846A0470028F9D0012804D147
:1007A00001984670067005B0F0BD0121044A09F0B9
:1007B0001AFEFEDE00000020C507000011A40000A4
:1007C0009CE60000F0B503AF85B004460020002A87
:1007D00030D0039104922669E368BFF35F8F9E4295
:1007E00009D9F11A00224D1E524101291AD2154889
:1007F0002121174A23E0012295020021ED1A0291DE
:1008000049415140002E05D000290BD00D4821212F
:100810000D4A14E0029A00290ED1691E5241012DA1
:100820000D4609D3002D05D0009520460399049A62
:1008300000F010F805B0F0BD02482121034AFFF78F
:1008400063FCFEDE10E60000ECE60000FCE60000C3
:10085000DCE60000F0B503AF85B014460246B86888
:10086000844200D3044600261D19304670419D4243
:100870002ED31E48401C85421CD9049101208002C1
:10088000C11A039131467141984225D35068C0186E
:10089000049901920296039E32460DF091FDA21B2F
:1008A00002984041B4421BD3039804990918019E51
:1008B000706803E05068C018164622460DF080FDAF
:1008C0000A480540BFF35F8FF560204605B0F0BDD4
:1008D0000A481C210A4A06E005482121064A02E08E
:1008E00003482121034AFFF70FFCFEDEFF0300004F
:1008F00010E60000CCE60000BCE60000F0E50000D9
:10090000ACE60000D0B502AF86B00DF036F8044674
:100910000DF02FF80D480178002909D1012101704F
:10092000A1430E4801700E48FFF7F6FD06B0D0BD9A
:10093000002005900649049102900120019005488D
:1009400000906846044909F00CFCFEDE52040020C9
:100950007CE600000CE7000014E7000053040020D0
:100960005404002080B500AF0648FFF7C9FE0648D2
:100970000021017005480078002801D00CF0FBFF31
:1009800080BDC046540400205204002053040020BF
:1009900080B500AF0A4601460148FFF7E9FD80BD7A
:1009A0005404002080B500AF82B009F03EFD01A8DC
:1009B0002A49018009F01EFDFFF7D4FF09F0E4FD8C
:1009C000054609F032FD01A82549018009F012FD14
:1009D00001A82449018002242146FFF7D9FF01958F
:1009E00001A804252946FFF7D3FFFFF7BBFF00F05E
:1009F00013FA064609F019FD01A81B49018009F008
:100A0000F9FC01A8174901802146FFF7C1FF0196B3
:100A100001A82946FFF7BCFFFFF7A4FF0020134CF5
:100A2000134D144E2146414349190622D141B1428A
:100A300009D809F0FAFC01A80F49018009F0DAFC95
:100A4000FFF790FF0020411C814201D60846E9E7EC
:100A50000A481C210A4AFFF757FBFEDE050000008A
:100A60000600000002000000070000005FF7435985
:100A7000C07E0300F61B00000800000040E60000F6
:100A800024E7000010B50400034B036040300AF077
:100A900032FF200010BDC0463CE700001423F0B533
:100AA000040093B0192200931821043001F082FD54
:100AB00023002600270064331800B4361321109356
:100AC000B83702F00BFC30000AF0C9FC00221E21EE
:100AD00038000AF016F82000D03001F099FB23000E
:100AE000F03307211800454A119300F087FB2000DE
:100AF0000025012369301A0011210095FF3003F011
:100B00005DFC20009130012302221A210095FF3064
:100B100003F054FC2000B930022201210323FF30EE
:100B200001F03AFC380002F06FFCE4235B00E05077
:100B3000380003F06FFEE6235B00E0500100E42282
:100B400020000096D1305200119BA258FF3003F0D4
:100B5000B3FC2000E13031000822FF3001F094FFA7
:100B6000782320000F93013B0E93033B0D93013B31
:100B70000C93013B0B93013B0A93013B0993013B0F
:100B80000893013B0793013B0693013B0593013B0F
:100B90000493013B0393013B0293013B0193F93022
:100BA000013B652200936421013BFF300AF098F875
:100BB000CA239B003100E01803F000F8D3239B0008
:100BC000E018092101F0C2FCDD239B00E5501098DC
:100BD000032125700AF06FFE23002200200008493F
:100BE0009C33A0321C6022C2064A02215A61803026
:100BF000012202F0F3FA200013B0F0BD44E7000038
:100C000055A400003FA400000278F0B501231700AE
:100C100004008DB01F401A4200D088E00300D0339A
:100C20001800029300F004FE00F014FA302008F0DF
:100C30001FFA0500103009F037FE2800243009F0B3
:100C4000F0FE6E4B18202B6008F012FA06006C4B79
:100C50000822390004600C300A930B970DF034F928
:100C60000AA90822301D0DF048F9664B290073616E
:100C700012230298AE60EF60AB802F62EF6201F04A
:100C80003DFA002805D028000AF0CEF8280008F028
:100C9000E7F9012322785C49134323702300B4331E
:100CA000180003930AF0E1FB5849049003980AF0F6
:100CB000DCFB00260590642000F028FF350037009B
:100CC00023006933FF33180006930BF024F9002842
:100CD00068D1049B002B00D06FE0059B002B00D057
:100CE0006BE0DD254A494B48AD0000F0AFFF63598A
:100CF000002B1CD100F0CCF8010009A802F010FB79
:100D00000AA809F024FCCA239B00E018059B0AAA44
:100D100009A90093029B02F0A7FF0AA80AF0EBFDC5
:100D200009A80AF0E8FDCC239B00E35863510DB0FD
:100D3000F0BD002B5AD1059B002B02D0180008F003
:100D40008FF93349334800F081FFCA239B00E31831
:100D50000793DD239B00E358002B1CD100F098F88B
:100D6000010009A802F0DCFA0AA809F0F0FB01234F
:100D70000AAA09A907980093029B02F075FF0AA826
:100D80000AF0B9FD09A80AF0B6FDCC23DD229B00CC
:100D9000E3589200A3502100069A0798F03103F01F
:100DA0004BF98DE720009130FF300BF0B4F80028AC
:100DB00000D18EE7182F00DD8BE72000653029B2C7
:100DC000FF2332B2FF30013501F024F8EDB23220BA
:100DD00000F09CFE0137052D02D100250136F6B248
:100DE000049B192FA5D0002B00D169E70649039871
:100DF00001F014FD049808F033F99CE7FD030000AE
:100E0000D9A4000099A40000FBF2000006F3000042
:100E100000200020001C002080B5154FBD4468460E
:100E2000FFF73CFE6846FFF7EFFECA226946114B0A
:100E30009200D1A88B500AF05EFDD0A80AF05BFDAD
:100E400064A803F0B1FA5AA803F0AEFA3CA800F087
:100E5000AFF934A801F0BCF919A802F033FA01A8DF
:100E6000FFF710FE2220DE239B009D4480BDC0467C
:100E700088FCFFFFA4E90000BFF34F8F024B034A39
:100E8000DA60BFF34F8FFEE700ED00E00400FA05E3
:100E9000F0B58BB01922164903A80DF02EF80023E7
:100EA000144D05266B7180235B055B6E2C0000934F
:100EB000012337000193310000980DF00AF8080073
:100EC00001990CF05DFD009B03AA1B1A0093019B86
:100ED0007E437B4301932B1B7B43D3181B5C013C5C
:100EE0006371054B9C42E6D102480BB0F0BDC04691
:100EF00087F300005704002052040020F0B595B09D
:100F00001822002104000EA80CF0DEFF13210EA809
:100F10000AF088FC03210EA80AF05FFC474B1B680F
:100F2000002B00D10133DBB2019300210123444A9D
:100F300009A801F013FEFA239B009C429B411C4030
:100F400072B6404B64211E683F4B20000593052577
:100F50000CF0A8FF6843503030180A21069020009A
:100F60000CF0A0FF0A210CF090FF6943503171187A
:100F7000200007910A210CF088FF4D435035761967
:100F8000089680260024B601019B002B4BD004ADAF
:100F900045E0032C02D180260024B6016B682B4A61
:100FA000029363009B180022009258780299095C12
:100FB000039119788C461021604601410398014243
:100FC00004D0012090400099014300910132063382
:100FD000092AEAD1009B029AD9431D4B0901194005
:100FE0002B689A421DD1312F1BDC002109A80AF081
:100FF000B6FAFA23139A0F99DB001068014212D057
:10100000013B002BF9D1FA23013401377600E4B219
:101010005B009F42BDD1043508ABAB4205D0002731
:10102000B7E73143E2E7FFF727FF044B1B68002BCC
:10103000ADD0019B013BDBB20193A5E7CC000020C2
:10104000F0FF0000300000204CF3000051F30000DE
:10105000F01F0000F8B50023124C236009F09AFA43
:10106000002808D00421200009F090FA002801D0BF
:101070000D4B2360F8BD0123A12704210B4A0C4D21
:1010800013602368FF0068606E68002EFCD0D6599C
:101090001B02013933430029F5D12360012353603A
:1010A000E8E7C046C8000020ED5EBC0B00D0004061
:1010B000FCD00040F0B5040085B0637A9C46002B5C
:1010C00004D1200009F087FA05B0F0BDA37A266F9D
:1010D00001931023019AF35600259B1801229A4090
:1010E0002900F36802920393039BAB421BDC11239C
:1010F000C943F356606C994023691940029B194318
:101100000AF02DFAA27B072ADED8637B25485B0014
:101110006373531CDBB29100A373022A35D8405885
:101120000AF010FBC9E7B368019A6B4370699B181A
:101130005B00E77AC218C35C5078E279012F14D1C2
:10114000571E3F1A18003B004243606F5200801840
:10115000C0188379634500DD6346627B1A4202D082
:101160000123AB4019430135BEE7022F05D1571EBD
:10117000FB1A277A013F381AE6E7032FE4D1277AD2
:10118000013FFF1A03003800DEE7074B4158236395
:10119000002320006363054BE462236414300AF0EB
:1011A00062FA91E774E70000B5100000C1A50000E5
:1011B00070B504000F4B2500036001F057FC2000C0
:1011C000743009F0BFFC2000603009F0BBFC200047
:1011D00058300AF090FB200050300AF08CFB064B90
:1011E0001435280063610AF02DFA280001F0FEFD95
:1011F000200070BD64E7000000E90000F8B500259C
:101200000400314B858003608571143016000F0097
:1012100001F0D8FD20002D4BE5626361256450305C
:1012200002F0B8F82000583002F0B4F82000603026
:1012300000F0DCFD200031680423F25E490009B2B1
:101240002667743009F0ABFC33680120E3717368E2
:10125000226F237210236581A7802561D356916880
:101260005918994224DC11230120D356D2689A18C8
:101270009A4222DC142007F0FBFE226900212A4357
:101280000123060001F06AFCFF2322006372013390
:10129000A381002348326664A37320001370A36601
:1012A00001F0C6FB0123A27920001343A371F8BD0E
:1012B00006009E4001333543D3E706009E40216976
:1012C000013331432161D3E764E7000014E90000F2
:1012D000F0B5437A040085B0002B04D1200009F05A
:1012E0007AF905B0F0BD837A066F01931023019A55
:1012F000F35600259B18012294469A402900F36872
:1013000002920393039BAB4228DC1123C943F3569B
:10131000606C994023691940029B19430AF01FF938
:10132000667AB31EDBB2FC2B14D801F02FFB224BE4
:1013300005002363002321486363214BFF21704391
:10134000E46223640CF0AEFD290041432000143018
:101350000AF089F9637A012BC3D8BFE7B368019A11
:101360006B4370699B185B00E77AC218C35C5078C6
:10137000E279012F10D1571E3F1A18003B0042435B
:10138000606F52008018C0188379002B02D063462A
:10139000AB4019430135B5E7022F05D1571EFB1AA3
:1013A000277A013F381AEAE7032FE8D1277A013F6D
:1013B000FF1A03003800E2E7D7A50000B6030000DB
:1013C000C1A500001FB5012381881A00684609F0F5
:1013D00075FA012368461A00024909F06FFA05B050
:1013E00000BDC046FE0300001FB5030048331A7855
:1013F0000400002A0DD000221A70012381881A00EF
:10140000684609F05BFA012368461A00034909F0AF
:1014100055FA2000743009F0B9FB1FBDFF0300002E
:1014200010B50400230048331A78002A07D01B782F
:10143000012B04D00121024809F0C9FAF2E710BDDE
:10144000FF03000010B501210400072009F0BFFAD6
:10145000064B984208D148342378002B04D02378D7
:10146000012B01D020BFF7E710BDC04616FCFFFFDF
:1014700073B5079E0400002E1CDB05004835287854
:10148000002802D02878012816D106981BB2C0B2D5
:101490000090200012B2743009F08EFB002E07D0AD
:1014A00023004A331E8000234C34238007332B70E3
:1014B000002076BD0148FCE70148FAE717FCFFFF72
:1014C00012FCFFFFF0B585B01E000B9B04000F005F
:1014D0001500002B20DBFFF7A3FF230048331B7808
:1014E000002B1BD1390003A809F039FB0B9B2A0004
:1014F00001930A9B03A9009320003300FFF7B8FF74
:1015000003A809F01FFB0B9B002B02D02000FFF764
:1015100099FF002005B0F0BD0148FBE70148F9E75D
:1015200017FCFFFF11FCFFFFF8B50400171E1DDDBF
:10153000060048363378002B02D03378012B17D1C0
:101540002200E3795632013B13702300002520006E
:1015500054331D8050300AF02BFA23004A331F8089
:10156000022328004C3425803370F8BD0148FCE785
:101570000148FAE717FCFFFF12FCFFFFF8B5040073
:10158000171E2DDD060048363278002A02D0327848
:10159000012A27D15D42069BFF331FD16B1D22001C
:1015A0001BB2643213802300200066331D7060304C
:1015B00009F0DDFA230000226C331A70954200D046
:1015C0003D0023004A331D80079B00205A1E934193
:1015D000013F4C34053327803370F8BD069BDEE7AE
:1015E0000148FAE70148F8E717FCFFFF12FCFFFF8C
:1015F000F0B587B004000F00161E03931EDDFFF741
:101600000FFF230048331B78DDB2002B18D13900BF
:1016100005A809F0A4FA0D9B320001930C9B05A9C3
:1016200000932000039BFFF7A9FF05A809F08AFAA1
:101630002000FFF707FF280007B0F0BD0148FBE7D7
:101640000148F9E717FCFFFF11FCFFFFFF2902D853
:101650004172002070470148FCE7C04617FCFFFFBD
:10166000084B73B51D680400002D0AD001002E68D8
:101670000822083168460CF040FC0CCC2800316888
:10168000884773BDD00000200B4B70B51C68002C40
:1016900000D170BD656D01F0B3F9A36C002901D1D3
:1016A000834206D8200009F06DF92000034909F0B3
:1016B00059F92C00EBE7C046FC0000200001002097
:1016C000F0B595B00793030C0293324B04901D685C
:1016D000314B05911F680023069286B203939F4207
:1016E0002FD115B0F0BD039B002B3CD1280009F091
:1016F00049F92800294909F035F9002C14D1284B63
:10170000F318012BEDD9102231000092254B029ADB
:1017100008A809F06FFB3B6838009B6808A9984748
:1017200008A809F081FBDCE70125A36C606D190CAA
:101730009AB203950B001DE0002A1ED096421CD0E1
:101740002500002DDBD0AB6C1748190C9AB26C6DDC
:101750000B008642F0D115488242EDD10029C2D05B
:10176000029A9A42BFD0002CC9D0A36C606D190CAC
:101770009AB20B0025000400EDE7002902D0029A7E
:101780009A42DDD1280009F0FDF82800034909F04C
:10179000E9F8D5E7F8000020EC0000200001002067
:1017A00002FCFFFFC1160000FE030000FF03000063
:1017B00010B572B60E4B1C68002C0ED0200009F03C
:1017C000E1F80023E3640B4BE36372B60A4B1A683B
:1017D0001C60A26562B6200010BD62B65C2007F0F6
:1017E00047FC5C22002104000CF06EFBE9E7C046D8
:1017F000F400002000400020F0000020064B10B54F
:101800001C68E36CDB0705D5FFF7D2FF034B1860BC
:10181000002800D1200010BD0C010020080100208C
:10182000024B1878012318407047C0465D04002021
:10183000F7B50600FFF7F4FF041E33D11A4D2E60F2
:10184000FFF7B6FF194B1A49186009F08BF8FFF73C
:10185000AFFF184B1860184B4363184B836328681D
:1018600000280ED0C027164E2200330015490097DD
:1018700009F052F80097330022001349286809F054
:101880004BF80C2007F0F4FB0023838083710F4B8F
:1018900003600F4B836001F0CBF801230D4A1178F0
:1018A0000B431370F7BDC046EC0000200C01002074
:1018B0000001002004010020FC3F002017AA0000C6
:1018C000C1160000FF030000FE0300009CE70000BB
:1018D000891600005D040020F7B5134F04003B6833
:1018E0000E00002B1DD0FFF79BFF002819D0FFF73B
:1018F00085FF050033042343836409F043F828007F
:101900000A4909F02FF80A4BE318012B07D9C02226
:10191000009221003200074B386808F0FDFF0020DC
:10192000FEBD0548FCE7C046EC000020F8000020A2
:1019300002FCFFFFC116000016FCFFFFF7B5060012
:101940000D0017000193002802D100242000FEBDE5
:101950000029FAD0FFF72CFF041EF6D0074B019A9E
:1019600043630660064B45608760002A00D0054B44
:1019700020000549A36308F0F5FFE7E7FC3F0020DE
:10198000E1A90000FFA9000000010020F8B5050052
:10199000EFF30883C46B006CE41A6B6C1B1A9C4257
:1019A0000FD91F23074E203437689C43002801D0ED
:1019B00000F0AEF9200000F077F92864001968649F
:1019C0003760F8BD0C010020024B186843425841B3
:1019D0007047C046000100200300002210B50449F2
:1019E00094000859002801D1635010BD0132F7E777
:1019F000D4000020002310B5044A990054588442B2
:101A000002D10020885010BD0133F6E7D400002039
:101A100010B50024084AA300D058002802D003685B
:101A20005B6898470134062CF4D1044B1B68002BEB
:101A300000D120BF10BDC046D4000020000100200E
:101A4000F8B5FFF7EDFE00281CD02A4D2C68E36C9A
:101A5000DA0718D502263343E364274B1F680423B3
:101A6000FA6C38001343FB64636BFB63FFF78EFF74
:101A70003800796C01F011FB2868C36C334201D047
:101A800001F045FBF8BD1D4F1D4E3A683068002A35
:101A90000AD128601B0712D52C60FFF7B9FF3B68FD
:101AA000002BFAD02B600AE0216DB94204D1616DA0
:101AB000002900D111000A002A608242EAD0296878
:101AC0008C42DFD0336899420BD10E4B4B630E4BE7
:101AD0008B632000FFF75AFF296820004B6C626C73
:101AE00004E09C42F5D1002210004B6C01F094FA06
:101AF000C8E7C0460C0100200801002000010020BA
:101B000004010020FC3F002017AA000070B504006B
:101B1000FFF786FE002803D1200009F01EFE70BDED
:101B2000FFF76CFE050000F06BFF2418AC64280082
:101B300008F028FF2800034908F014FFFFF780FF92
:101B4000EDE7C046FC000020F8B5FFF769FE00286D
:101B500019D00024184E306808F014FF174D2B6878
:101B6000002B11D1032C12DC2900306808F0FAFE9A
:101B700072B6134932680B68934214D19B6D0B60A7
:101B800062B6FFF75DFFF8BD5B6D0134E8E72F68D3
:101B9000013C7B6D386C2B6000F0BAF8380000F027
:101BA000B7F8DFE70B00002BEAD0996D8A42F9D134
:101BB000926D9A65E4E7C0460C010020F400002015
:101BC000F0000020F8B505000C00002829D0FFF730
:101BD00027FE002827D0154E3068C36C5B0706D05F
:101BE00021002800124A08F0E3FE0020F8BD01F0B1
:101BF00076FA3268D36C990703D503218B43D364FB
:101C0000F3E701273B43D3642000A8473268D36C35
:101C10001900B943D1645B07E7D5200008F0E7FE5F
:101C2000E3E70448E2E70448E0E7C0460C0100208F
:101C3000EFA9000017FCFFFF16FCFFFF020010B524
:101C4000014B12CB12C210BD10010020F0B5124E94
:101C500003003478022C1BD081421BD90D1A072DAA
:101C600018D90A0002430327100038403A4211D124
:101C700072B6BC40094AAD08A350121951608022C7
:101C800012062A431A6033780133337062B6F0BD0E
:101C90000348FCE70348FAE75F040020180100202E
:101CA00013FCFFFF17FCFFFF70B5041E19D0124D87
:101CB000124E2B78002B0CD1114812493370FFF7CC
:101CC000C5FF114B984202D11E20FFF717F90123DF
:101CD0002B7000253378AB4204DC1420FFF70EF99B
:101CE000002070BD094BE9002000C91808F09DFED6
:101CF0000028F6D10135EDE75E0400205F040020E6
:101D0000000000000038002017FCFFFF1801002031
:101D100010B500281BD000220F4B19780F4B9142B1
:101D200003DC1E20FFF7EAF811E01C6884420FD2A2
:101D30005C6884420CD9041F2368002B02DC1E203F
:101D4000FFF7DCF8802322681B061343236010BDD5
:101D500001320833E3E7C0465F0400201801002089
:101D600013B5040004A800780090200009F07BFD62
:101D7000002801D1207516BD0048FCE70EFCFFFFCE
:101D800013B5040004A800780090200009F053FD6A
:101D9000002801D1207516BD0048FCE70EFCFFFFAE
:101DA0007FB50D0011000F226A4404001E1E117041
:101DB00016D0089B002B13DD012329000093FFF7A9
:101DC000DFFF002802D0074804B070BD0090320049
:101DD00029002000089BFFF7C3FF0028F4D0F2E79A
:101DE0000148F1E70EFCFFFF17FCFFFF014B03600A
:101DF0007047C046ACE7000010B50400081E03D1D0
:101E0000034B2360200010BD216009F0C2FBF9E7FD
:101E1000ACE7000030B500684488A1420BDA858841
:101E2000AA4208DA0D00154305D45443401800199E
:101E30008371002030BD0148FCE7C04617FCFFFF5E
:101E4000F0B507000D001E0085B0002924DD002A32
:101E500022DD002B20D00468638803938B4200DDD1
:101E60000391A3880293934200DD0292002306347B
:101E70000193019B029A934202D1002005B0F0BD6C
:101E800031002000039A0CF038F83B6876195B8823
:101E9000E418019B0133EBE70048EFE717FCFFFF75
:101EA000F8B51F000B0004000D001600134302D507
:101EB0000D4B0360F8BD100048430630FFF7F4FEF9
:101EC000206009F063FB23685D809E80002F06D0B0
:101ED0003B00320029002000FFF7B2FFEAE72000B4
:101EE00008F054FEE6E7C046ACE70000F7B507008F
:101EF0000D1E3DD1244B03603800FEBD30225242FE
:101F000094469C446246092A30D90A2B29D1631E83
:101F10009C41019B361901330193B14200DA310033
:101F20000024260001300378002BE7D10126019A16
:101F3000380012B209B27642FFF7B2FF31000A2030
:101F40003A6806322C78002CD6D02300303B092B7F
:101F500014D8F343DB17334043431E19303E013599
:101F6000F0E7002CDED000240136DBE70124D9E7BE
:101F700000240800260021000194D4E7002EEEDBA7
:101F800016700E000132EAE7ACE70000F0B505007C
:101F900087B004A80C001E000192FFF74FFE2B68CB
:101FA00001995A88914232DA9B889E422FDA1F2C7F
:101FB0002DD9059B9C422ADC052161430024049B0A
:101FC000A0395B180393039B30191B5D0293002318
:101FD000019AD7182A68518800918F420EDA9188A9
:101FE00088420BDA0099D219414352181021194145
:101FF000029F39404F1EB941494291710133052B6F
:10200000E6D10134052CDED1002007B0F0BD014837
:10201000FBE7C04617FCFFFFF7B5036805009E1DF0
:102020005B880C005A1A0192002919DD0027994299
:1020300011DB08F0ABFD0020FEBD31193000019A24
:102040000BF05BFF019B2100F01808F082FD2B686C
:1020500001375B88F6182B689B889F42EDDBEAE727
:102060000048E9E717FCFFFFF7B506000D1E01D198
:102070002048FEBD0023022704690193002C04D1EF
:10208000019B002BF4DD2000F3E7AA88A3885340CE
:102090003B422DD13A4222D1A268AB689A4227D165
:1020A0002B88002B02D022889A4221D16B88002BEA
:1020B00002D062889A421BD1EB68E268934201D059
:1020C000002B15D17368002B01D020009847A288FF
:1020D000094B1343A380019B0133019308E0A968D6
:1020E000A06809F0ACFC0028DAD1AB883B42D3D021
:1020F000E46AC3E717FCFFFF0080FFFFF0B50600AE
:102100000C0085B000295BD002270569002D0CD199
:10211000306922880100031E33D1346101236846EF
:10212000284908F0CBFB00201CE0A1882A6823681E
:10213000394219D0A988394216D09A421AD1A168D9
:10214000A86809F07CFC002814D0E268EB689A4289
:1021500010D104216A5EAB88002A02DA5B045B0CB2
:10216000AB80194805B0F0BD9A4203D1AA68A368B4
:102170009A42EAD0ED6AC9E7DD6A1900002D0CD059
:102180002B001D889542F7D3002B06D01D88954261
:1021900003D15F886588AF420BD988420CD10B8888
:1021A000934204D808D148886388984204D9E162F0
:1021B000B3E71900DB6AE7E7CB6AE362CC62ADE71D
:1021C0000248CFE7FD03000016FCFFFF17FCFFFFEE
:1021D00010B50400044B0360044B08300360FFF7A4
:1021E00009FC200010BDC046BCE70000E0E700008D
:1021F00008B4024B9C46083808BC6047D121000057
:1022000008B4024B9C46083808BC6047BBAE0000CF
:1022100000230B4A10B502600A4A4360838183732E
:102220008260036143618361838304000830FFF7A8
:10223000D3FB054B1A68002A00D11C60200010BD9A
:10224000BCE70000E0E70000D000002082B0F7B556
:102250000125C02709930CAB1B78046908920193F0
:10226000002C04D12800FEBC08BC02B0184708AA04
:10227000238812889A4201D0002B28D108AA6388AB
:1022800052889A4201D0002B21D1FFF7C9FA0123CD
:10229000002805D0A3883B40C03B5A425341DBB2E3
:1022A000019A934219D10422A35EA688002B14DB65
:1022B000102208A9A0180BF020FE760609D4FFF71B
:1022C000AFFA002805D021000548FFF77BFCE46A3F
:1022D000C6E7200008F0FAFDF9E70025F7E7C04659
:1022E000CDAE000008B4024B9C46083808BC6047DD
:1022F0005FB00000F0B587B001930EAB1B880600FD
:1023000003930D9B0D000093019B0C9F0292002BE9
:102310003DD0002F02D1009BDB0738D5302006F0DE
:10232000A7FE0400103008F0BFFA2000243008F0A7
:1023300078FB029B25806380182006F099FE05003B
:10234000009B08220593019B002103600C30049739
:102350000BF0BAFD082204A9281D0BF0CEFD0D4B91
:1023600002226B6100230399E3602362E362336816
:102370000A43300021005B68A560A28098470028CE
:1023800005D0200008F050FD200006F069FE07B0DF
:10239000F0BDC046ADB00000F0B500258BB0049292
:1023A0008380174A049B174E0400857102600181E7
:1023B0004381057330688C46A8421DD0124A0795A8
:1023C00005920692C02202926A4606AB82CB82C276
:1023D000614623002A00FFF78DFF059A30680892B6
:1023E000C02202926A4608AB099542CB42C2230042
:1023F0002A000499FFF77EFF20000BB0F0BDC04615
:10240000F8E70000D000002001B2000030B5002441
:1024100003730123034D84710560818082734373CC
:10242000846030BD10E8000070B583790400DB07DC
:1024300004D58068002801D006F012FEA3799B071E
:1024400004D5A068002801D006F00AFEA3795B0736
:1024500009D5A0230021154AA068DB00D15088428D
:1024600001D006F0FDFDA3791B0708D5A568002D56
:1024700005D0280009F0A6F9280006F0F1FDA3799F
:10248000DB0605D5A068002802D00368DB68984702
:102490006023A2791A4205D0A068002802D0036800
:1024A0005B6898470023A360A37170BD0070004073
:1024B000F7B50126037B040033422CD082796123D7
:1024C0001100194001911A4216D1FFF7ADFF1820F3
:1024D00006F0CEFD0E230500E35618220093677B1D
:1024E00001990BF0F1FC3A002800009909F09FF9DE
:1024F000A379A5603343A3716023A279A0681A422F
:1025000002D009F0D1F9FEBD436940681B6818404C
:10251000431E9841F7E70148F5E7C04616FCFFFF68
:1025200010B583794173DA0704D5806809F055F94D
:10253000002010BD6022134203D0806809F0BBF96F
:10254000F6E70148F5E7C04616FCFFFF70B504004A
:1025500000250C4B0E00858085710360210018302A
:1025600008F005FF20002100203008F022FF064B74
:102570002000A680E5802572E560256165611C600C
:1025800070BDC04628E80000280100200300006953
:10259000002809D00221054AD167426A1A611A7AD5
:1025A000013A1A72024B19607047C04604E100E01C
:1025B00000E100E070B504001D0004AB1E7800F0DF
:1025C00011FB20000F4B4030236000F0E3FE23009E
:1025D000220001354C331D700023E12158320136B1
:1025E00016700A3AA3646365138053809381D38184
:1025F000013B6364044B20004902196009F004F8B0
:10260000200070BD3CE700002C010020F7B58027BA
:102610007F053E697C690822113C74430500210056
:1026200068460BF06AFC104B009A9A421AD000934D
:1026300000230193796928001339714308F0D0FE13
:10264000019A2800009908F0E3FE2100280008F014
:10265000C7FE31007A692800133A5143B3082200BB
:1026600008F0C8FE0198FEBDFECA0000F0B50E00DD
:10267000ABB000210C920700302212A81D000BF015
:1026800023FC30000BF0D2FE431C0B93102B00D91F
:10269000BAE0202D00D9B7E03100380008F0E5FE9F
:1026A000041E09D02A000C9910300BF0BAFE002845
:1026B0006CD0200006F0D4FC31000B9A12A80BF06D
:1026C0001CFC2A000C9916A80BF017FC80235B0554
:1026D0001A6938000B925A690B99113A51435D6996
:1026E0000D91FFF793FF0D9B30220833002104006A
:1026F0001EA80F930BF0E8FB29000B9B13395943DD
:10270000380008F06DFE00230F9D0C930E930C9B78
:10271000A34241DB0E9B002B26D10B9B3021981E40
:102720000BF02EF9A04200D170E03949651C380049
:102730002A001091119508F06BFEE3433022DB175D
:10274000234053430F9AD3186A46099315AB13CB12
:1027500013C213CB13C213CB13C238001299139AAE
:10276000149B08F063FE2C0038000D9908F038FE29
:1027700080235B055A690C2363430B99133A514339
:1027800038000D9A023308F035FE02E0200006F012
:1027900067FC00202BB0F0BD290030221EA80BF0F2
:1027A000ACFB12A91EA806F039FF00281CD118495D
:1027B000380022001091119408F02AFE6A4609950B
:1027C00015AB43CB43C243CB43C243CB43C23800D8
:1027D000149B1299139A08F029FE01230E930C9B67
:1027E000303501330C9392E76A46099521AB43CB10
:1027F00043C243CB43C243CB43C238001E991F9A06
:10280000209B08F013FEEAE70248C3E70248C1E74D
:10281000FECA000017FCFFFF13FCFFFF8023F0B58A
:102820005B051A6995B002925A6905910299113AAD
:1028300051435C69029B133C05005C430391FFF725
:10284000E5FE061E1AD00027039B30220833002124
:10285000083408A801930BF037FB2100280008F08A
:10286000BFFD0497B7420CDB049B002B2AD11F4904
:10287000320028000691079608F0CAFD1C4815B0E2
:10288000F0BD0199302208A80BF037FB059908A884
:1028900006F0C4FE00280DD11449721E28000691CE
:1028A000079208F0B5FD01230493019B01373033F3
:1028B0000193D7E722000C232800019908F09AFD24
:1028C0003034F2E72800039908F08AFD80235B0585
:1028D0005A690C2373430299133A28005143023377
:1028E000039A08F087FD0020C9E7C046FECA000031
:1028F0000CFCFFFF70B5051E14DD0B4E0B4C33684E
:10290000002B02D0206808F09DFEFA2120680024E8
:10291000074B89008361C4626943356008F0A3FEF8
:10292000200070BD0348FCE7600100203401002056
:10293000DD29000017FCFFFFF8B5114F05003E68C8
:10294000002E0AD1302006F093FB040000F03AFA82
:102950000C4BA6612360E6623C600B4E3368002B93
:1029600009D1102006F084FB040008F0C8FE200006
:10297000346008F09EFE2800FFF7BCFFF8BDC0469B
:102980003401002000E9000030010020014B1868EC
:102990007047C04660010020D0B50D4C2368002B65
:1029A00003D00C4B1B68002B02D10620FFF7C4FF9D
:1029B000206808F095FE06000749C7170A684B68AB
:1029C00092197B4120680A604B6008F08FFED0BDF1
:1029D0003001002034010020C000002010B5FFF7B6
:1029E000DBFF0024054AA300D058002802D003686A
:1029F0001B68984701340A2CF4D110BD380100201F
:102A000010B5FFF7C9FFFA22034B92001868596806
:102A100000230BF067FA10BDC000002010B5FFF7CF
:102A2000BBFF024B1868596810BDC046C0000020AB
:102A30000B4B10B51B680400002B03D0094B1B681F
:102A4000002B02D10620FFF777FF0023064A9900EA
:102A50005058002801D18C5010BD0133F7E7C04613
:102A6000300100203401002038010020002310B57F
:102A7000044A99005458844202D10020885010BD65
:102A80000133F6E73801002070B50400A280FA2275
:102A9000002308000C4992002160A3710B4960617A
:102AA000E260A360638208F0E0FC051E09D001002B
:102AB00020000222103112300BF01FFA280006F01D
:102AC000CFFA200070BDC04640E800007BF5000052
:102AD00030B502258379040087B02B4204D1FEF77C
:102AE0007BFFA3791D43A571200008F003FD00289A
:102AF0001CD06B46DD1C280008F0F3FC2B78002B63
:102B000017D001A808F0EBFC0321019AD3170B4062
:102B10009B189B102382FFF773FFE368A1881B18A3
:102B2000A360012302A81A0007F0C8FE002007B026
:102B300030BD0122064B1A60064A51680029FCD0BC
:102B400000215160044A1268019201225A60DBE7B9
:102B500000C00040FCC0004008C500400261064AB9
:102B600010B54260054A01738260054A190002608F
:102B700008F0D2FC10BDC0460405005010050050FE
:102B800000070050002330B5124AD35683421DD0AF
:102B90000123D35683421BD00223D356834214D140
:102BA0000223190045310C480C4CFF3189000C50B0
:102BB00001210D005C00601C8540A140A120084C53
:102BC0002943C0002150FF21D15430BD0023E8E744
:102BD0000123E6E7B600002000600040031F02006A
:102BE00000F0014010B5040000F0B2F8014B2000E5
:102BF000236010BD58E80000074A030010B501200B
:102C0000934207D0834201D0DB0702D41E20FEF797
:102C100075F9002010BDC046FFFF0000012310B56C
:102C20000A4ADC0014598C4207DD013BDB00D21854
:102C300001685268064BCA5010BD0133112BF0D108
:102C400080210268024B4905D150F5E760E8000099
:102C500024050000F7B5012701923A00264C0091A7
:102C6000A023046006000098244D8240DB055959DA
:102C700001980A435A518022595912060A433900D1
:102C800081405A515A5930008A435A515A59962113
:102C9000BA40FA4089015A51FFF7C0FF00230421CE
:102CA000174AA3506C3AA150164AA7602760D36018
:102CB000154A0099A3507360143A1F33A350134A66
:102CC000A1500432A350019B6351009B013303D0F8
:102CD0000321009809F05AFF019B013303D003211F
:102CE000019809F053FF0122094B31001A6009488D
:102CF00007320BF002F9F7BD002000401405000078
:102D00006C050000FC2000401C0500000C050000C4
:102D10006C01002064010020962310B5DB0099426D
:102D200005DC9E210268034BC902D15010BDFFF79C
:102D300075FFFBE724050000034B19604368034956
:102D40009B00CA507047C0467001002074010020EB
:102D50000C4B70B50360002343608360C360036263
:102D600043628363962304009B01051DC36328000F
:102D7000FFF770FF280022000349FFF7DDFF200066
:102D800070BDC046F0E80000CFB5000010B50400EB
:102D9000044B036008F056FC200000F027F82000E8
:102DA00010BDC04600E9000010B50400044B0360EC
:102DB00008F048FC200000F019F8200010BDC046C3
:102DC00000E90000074B10B50360002343608360F7
:102DD000C360040000F014F80349206109F0F6FE16
:102DE000200010BD28E900001BB7000010B504004A
:102DF000024B036008F09EFC200010BD28E9000093
:102E00000048704734E90000012380200D4910B5C7
:102E10008B640D4B0D4A8000D867146D0C4B002C51
:102E200004D0002414651A6801321A60094A10603F
:102E30001868A923DB00CB58010C9BB2000418438F
:102E400010BDC0460090004004E100E0FC9000404E
:102E50008401002000E100E070B51B4D28780028B7
:102E600031D10121194B1A4A596050608020C005A8
:102E7000016051680029FCD000221649A2205A5056
:102E800004240121C000D9601C5008381A5012488F
:102E9000C2261A50C1228020920000039850802040
:102EA000400298500D4AB60094590D480440C02085
:102EB000000220439051C024802064008000105103
:102EC00010601960297070BD6104002000900040FE
:102ED000FC000040040500004C05000000E100E09B
:102EE000FF00FFFF044B10B51B78002B01D1FFF74B
:102EF000B3FFFFF789FF10BD61040020104B70B5D0
:102F00001B780400002B01D1FFF7A6FF0D4D0E4EDC
:102F10002B78002B02D03368A34210D0FFF774FF48
:102F2000201A0A2803DCFFF76FFF0A300400012390
:102F30002B70A823054A3460DB00A4B2D45070BDC6
:102F40006104002060040020800100200090004007
:102F500070B5064D04002B68002B02D109F043FD2B
:102F6000286023689B00EB58636070BD88010020D7
:102F700070B500280ED10D4D2E68002E08D10830F6
:102F800006F076F8040006604660FFF7E1FF2C606B
:102F9000286870BD064A0123116806480C001C40D1
:102FA0001942F6D1036044601360F2E798010020F3
:102FB0008C01002090010020436810B50400002B14
:102FC00002D1044808F004FC606803681B69984754
:102FD00010BDC04683F50000436810B50400002B07
:102FE00002D1044808F0F4FB606803689B699847C5
:102FF00010BDC04683F50000436810B50400002BE7
:1030000002D1044808F0E4FB606803685B6A9847F3
:1030100010BDC04683F50000002815D00060416057
:103020008260C360046145618661C7614446046291
:103030004C464462544684625C46C46264460463FF
:103040006E46466374468463002A06D0C46B043C13
:10305000043A25681560B442F9D18C6BA6464E6BD4
:10306000B546002B06D0CC6B043C043B1D682560A4
:10307000B442F9D10C6BA446CC6AA3468C6AA24632
:103080004C6AA1460C6AA046CF698E694D690C69ED
:10309000CB688A6808684968704700604160826050
:1030A000C360046145618661C761444604624C4661
:1030B0004462544684625C46C462644604636E465D
:1030C000466374468463C46B043C043925680D6010
:1030D000B442F9D1C76986694569046970470060DF
:1030E00041608260C360046145618661C761444696
:1030F00004624C464462544684625C46C462644640
:1031000004636C4644637446846304697047846B4B
:10311000A646446BA546046BA446C46AA346846ACB
:10312000A246446AA146046AA046C7698669456901
:103130000469C368826800684168704701704B1C6D
:103140000AD001238B404360044BC360044B0361EE
:10315000044B4361044B83607047C0460805005030
:103160000C050050100500501405005030B5040047
:1031700008004D1C1CD00F4821600260BE220020B8
:103180000D4C5200A0500D4A8D00AB5001220C4B4B
:103190005A54C122802392001B06A350094B0A49AE
:1031A0009C580C40C02109042143995040221A60C8
:1031B00030BDC0469C01002000600040A8010020F6
:1031C0006204002000E100E0FFFF00FF0021026830
:1031D000014B9200D1507047A80100209446A022D4
:1031E000F0B50468E020D205A300C0009B181A586F
:1031F0001E4D1F4E2A401A5060461E4D32682F68E1
:10320000002822D0012919D1A14011433160316831
:103210002A6801200A43E24002420ED0A021A222E5
:10322000C905D2008958F132E140FF32014219D07C
:10323000C0219858890201439950F0BD0229E6D176
:103240000120A04038432860E1E7012903D1A140D3
:103250008A433260DBE70229D9D10120A0408743AD
:103260002F60D4E780219858E4E7C046FFFFFCFFB9
:10327000A4010020A001002070B504000D0016007C
:10328000002110220AF020FE054B32002900200008
:10329000236103F015FE034B20001C6070BDC04687
:1032A000A08601002402002070B5054D04002B68A3
:1032B000834203D0016903F0BFFD2C6070BDC0469E
:1032C0002402002010B50400034B03601C30FFF7FC
:1032D0007DFF200010BDC04658E9000070B5050014
:1032E00004000D4B0E0008C52800182200210AF02A
:1032F000EBFD002320003100084AE3612362636391
:10330000A363E3641C302300FFF730FF2800310083
:1033100008F088FA200070BD58E90000DFB800000E
:1033200010B50400002902D00B78002B03D1034B09
:103330002360200010BD08F0E5FAFAE760E900001C
:10334000F8B504000E00150000290AD00B78002BF8
:1033500007D0002A05D0080097B20BF067F8874223
:1033600003D90B4B23602000F8BD681DFEF79CFCC1
:10337000206008F00BF920682A00478031000430F3
:103380000AF0BBFD002223685B191A71EBE7C04607
:1033900060E90000014B03607047C04660E900002F
:1033A0000048704716FCFFFF10B53220FDF7A6FD60
:1033B000004810BD16FCFFFF8280142200234162EA
:1033C000010010B50E4C028104600E24123A837184
:1033D00082720363838636310A78C360A243036135
:1033E00043618361C36103620A70021DD3870122B6
:1033F0004287044AC26302004032137010BDC046C7
:1034000070E9000001000100F0B5514F97B03B6832
:1034100005000593002B3DD106AC1C2282210B3305
:103420002000FEF7F3FF0EAE0B231D2283210AA816
:10343000FEF7ECFF0B231B2284213000FEF7E6FF92
:10344000082005F015FE0122059B1100049009F0EB
:103450007AFC3A21280009F0E9F8002825D05C2000
:1034600005F006FEA38812AA9380A379A168937140
:10347000384B060012930E23E35691609373052395
:10348000A18991810193353300932900049B01F0B8
:103490004BFE3E60304B2E4C1868002802D021684D
:1034A00008F0ABFF206817B0F0BD3221280009F00A
:1034B000B5FD00281AD05C2005F0DAFDA38812AA19
:1034C0009380A379A1689371224B060012930E2377
:1034D000E356916093730523A189918101932D3364
:1034E00000932900049B03F031FED2E73C21280021
:1034F00009F0BCFC002820D0A42005F0B9FDB38859
:1035000012AA9380B37904009371124BB16812939D
:103510000E23F356916093730623B1899181029330
:10352000013B0193373300932900049B03F0E2FB36
:10353000094B3C6044341C60ACE7442005F098FD26
:10354000040005220499FFF737FF3C60A2E7C0465C
:103550002802002010E800003C020020F0B5C368FB
:103560006C4D85B00193AB425DDA030036331978B8
:1035700002220B001340114261D102694469029298
:10358000020002994032A94267DA01003631097817
:1035900049076CD4AC4200DB98E001003631097871
:1035A000090700D586E0002B71D113780393002B17
:1035B00017D036218C4684446146061DF38F0127BF
:1035C00001339BB2F38709780D003D40394200D1A9
:1035D00098E01D2B05D96346B94319700023F38782
:1035E000137008F063FA4C4A0723904200D886E033
:1035F0004A49019A043B8A4200DA80E0C8220198D5
:103600009200013390427ADC0298023B884276DBDA
:10361000013B904273DC04338C4270DB01339442F3
:103620006DDC00236BE0C822019900235200914217
:10363000A3DD030036331A78002392079DD40123BB
:1036400004001E003634227851088E4331000226D1
:103650009940B2430A4322708FE7C821029E490075
:103660008E4297DD010036310978490792D4060071
:103670000121363633789F08B94304278900BB43BC
:103680000B433370AC420EDADBB21B0712D4137853
:10369000032B8AD80133DBB21370012B22D1002116
:1036A000031DD98781E7C8235B009C42EFDD337897
:1036B0001B07ECD40100012536310B78DE08B54339
:1036C0000826ED00B3432B430B70E0E7C821490007
:1036D0008C4200DC67E7010036310978090700D524
:1036E00061E7E7E7042B00D05FE70200363211788C
:1036F000033B0B43137000230430C3870B331800C4
:1037000005B0F0BD092B00D86BE7F587039D013D9F
:10371000157066E770FEFFFFFF700200E0FCFFFF20
:1037200010B50400054B03601C3008F0E4F82000DD
:10373000183008F0E0F8200010BDC046A4E90000F1
:10374000FF2370B52B4E8CB0337000230400694604
:103750000088009303F0E4F8002802D16B469B78C0
:103760003370254D2B68DB68002B19D03378032B81
:1037700016D8224901A8FFF7D3FD2B6801A9DD68FF
:1037800004A808F00DF9280004A907F09CFE050024
:1037900004A808F0B0F8002D09D101A808F0ABF892
:1037A000002320881A00190008F028FA20E02900D8
:1037B0002022103104A80AF0A0FB280005F050FCDC
:1037C000337804AADB00D11802A808220AF095FB7E
:1037D00001230822208802A908F010FA002804D149
:1037E0000C212088064A08F007FA01A808F083F89F
:1037F0000CB070BDB90000202C020020A6F500001E
:10380000FFFF0000F0B58379040091B05B071BD582
:10381000FFF7F6F800232269801A9941994203D1F3
:10382000F533FF3398420FD3A068002808D0354BFA
:103830001D8807F0BBFF0368152229001B6A984703
:103840000422A3799343A371A3799B0758D52E4EE5
:103850003368DB68002B4FD02C4F3B78032B4BD8C1
:10386000284B2B491B8804A80193FFF759FD3368A7
:1038700004A9DD6808A808F093F808A9280007F053
:1038800022FE050008A808F036F8082302AAD38013
:103890000198073B063206A908F0B2F9002D08D0BE
:1038A00029002022103108A80AF027FB280005F083
:1038B000D7FB3B7808A9DB00CD1802AA2800D288E4
:1038C00006A90AF0AEFD002813D00822280006A998
:1038D0000AF013FB336804A9DD6805A808F060F856
:1038E0002023280008AA05A907F0F3FD05A808F081
:1038F00002F804A807F0FFFF0222A3799343A37103
:1039000011B0F0BD040400202C020020B9000020FA
:10391000A6F50000F0B50400150085B001930AABD0
:103920001F880BAB1B78461C02930EAB1B78102232
:1039300003930B7803704B8A0131438230000AF005
:10394000DCFA656100250122019B27836383039BC9
:10395000E5832377029B2000F377A31CDA770C9B87
:103960000C26636223000D9A283329001A705D70BB
:1039700032009D702C300AF0A7FA2000064B32006E
:10398000A3632900E56340300AF09EFA2000034B50
:103990002565E36405B0F0BD17BC000009BC00005C
:1039A00070B50D0007F002FF04000368002D09D177
:1039B0005B699847FA2080006843074909F0E0FFF7
:1039C000E08070BD9B6898478542F3D22368200051
:1039D0009B6898470500EDE771020000F0B507000D
:1039E0001400A3B00B9102C706006C491AA81D0071
:1039F00008F00BFA231E03D020000AF017FD83B253
:103A00000122049200220392029202320192009358
:103A100022001AA93800FFF77DFF330060495833B0
:103A20001AA8079308F0F1F92B1E03D028000AF01A
:103A3000FDFC83B201220492002203920292023220
:103A4000019200932A001AA90798FFF763FF330039
:103A50005449AC331AA8089308F0D7F9289B002BD7
:103A600003D018000AF0E2FC83B201220492002283
:103A700003920292023201920093289A1AA908989E
:103A8000FFF748FF731CFF3347491AA8099308F052
:103A9000BCF9299B002B03D018000AF0C7FC83B2A5
:103AA000012204920022701C0392029202320192BF
:103AB0000093299A1AA9FF30FFF72CFF33005533E2
:103AC000FF333A491AA8099308F09FF92A9B002B63
:103AD00003D018000AF0AAFC83B20122049200224B
:103AE000039202920232019200932A9A1AA909982B
:103AF000FFF710FF3300A933FF332D491AA80A93AB
:103B000008F083F92B9B002B03D018000AF08EFCE1
:103B100083B20122049200221AAC03920292023272
:103B20000192009321002B9A0A98FFF7F3FE214B94
:103B30000C931B780D93002B2DD1079B1E491593D9
:103B4000089B0FA81693731CFF331793099B1497B8
:103B500018930A9B14AD199308F057F91D214920B9
:103B600008AB1B7F1022237008ABDB8D638208AB90
:103B7000C918C0180AF0C1F9062323750D9B2095BA
:103B80000B98A38307F016FE036821001B68984773
:103B900001220C9B1A70300023B0F0BD292A0000CE
:103BA000242A0000252A0000272A0000262A0000D7
:103BB000282A0000810400200A18000070B50025A2
:103BC00004000B4B858085710360C1601830FFF7DE
:103BD000E1FB20001C30FFF7DDFB0123621CD377E3
:103BE000044A2000A56065611460A37170BDC046E1
:103BF000A4E900002C020020FA2130B585B00400B1
:103C0000012302226846890006F058FE074D286805
:103C1000002809D008F005F92188054B2A68198089
:103C2000022391790B43937105B030BD2C02002023
:103C30000404002010B50C0007290DD8806807F097
:103C4000B5FD064B195703685B6C9847431E9841B6
:103C5000034B4042184010BD0248FCE799F60000B3
:103C600016FCFFFF17FCFFFFF0B59B4C0D00A544B1
:103C7000040007939AAB1B78984909A8049306920D
:103C8000FFF74EFB200029001C3007F091FEC020FA
:103C9000800001F0EDFE082005F0EAF906000021A1
:103CA0000EAF07F078FD15AD0C220021A66038009C
:103CB0000AF00AF92B0007CF07C30027884B290019
:103CC00030001893199707F04FFDA06807F06EFDBC
:103CD00008223900059016A80AF0F6F8142005F01D
:103CE000C7F9804B1593030046CD46C3059E7E4B16
:103CF0000761A036C3607368BB4200D00361706087
:103D0000A06807F057FD08220021050016A80AF058
:103D1000DBF8142005F0ACF9744A03001592020098
:103D200015A9C1C9C1C2724ADA6000221A612A6BA0
:103D3000002A00D01A612B63A06807F037FD082223
:103D40000021050016A80AF0BFF8142005F090F92C
:103D5000684B15AF1593030046CF46C3664B9435A9
:103D6000C360002303616B68002B00D003616860AF
:103D7000012504AB1B7C04AA2B4308A9280013745B
:103D800007F040FFA06807F019FD03685B495B6A14
:103D90009847A06807F012FD036859499B69984746
:103DA000A06807F00BFD00230268009317680499D0
:103DB0002A00B847049B002B0AD0200008F03AF8EC
:103DC000032805DDA06807F0F9FC0368DB68984765
:103DD00000250EAF7819073507F066FF1C2DF8D1C6
:103DE000183D04ABA0680A975D7707F0E7FC03680D
:103DF0000AA91B699847A06807F0D8FC03680AA9BC
:103E00005B6D9847A06807F0D1FC03680021DB6D6B
:103E10009847A06807F0CAFC036802219B6D984789
:103E200000212000FFF706FF182005F021F9A16806
:103E300000F0DCFD3349344B0968344A03913449BE
:103E400015A809680026029132490CAF0968019152
:103E500006990968491900911B681268A168FFF763
:103E6000BDFD302005F004F9079AA16800F084FE3A
:103E7000A06807F09BFC036839009B6A9847264BB3
:103E8000A0680C93BE8007F091FC03683900DB6AE0
:103E900098472900A06807F08BFF099A09219378B9
:103EA000A068521907F097FFA06807F07FFC322145
:103EB0000671A068FFF774FD04AB1B7FB34204D00A
:103EC000A06807F073FC07F0E5FE09A807F013FDF2
:103ED00095239B009D44F0BDACFDFFFFB2F50000B3
:103EE00025BC0000F93B000033BC00004137000056
:103EF00041BC00006FBC00004FBC00001D3F000033
:103F0000513F00003002002038000020380200201D
:103F100034000020340200200800100013B50622EF
:103F20006846FFF70DFA094B1C68002C0AD0694659
:103F300001A807F035FD200001A907F095FF01A8B1
:103F400007F0D9FC684607F0D6FC13BD2C02002010
:103F5000002373B501AE0C0031000500019302F09F
:103F6000DFFC002802D1074BB2781A70064B1868A4
:103F7000002806D0054B1D8063425C41E1B207F08A
:103F80007BFF73BDB90000202C0200200404002038
:103F900030B5284CA9B06A220D000DA8210009F007
:103FA000ACFF0DA903A8FDF727FF03A906A806F09B
:103FB000D6FD01230193013BFF3B00930533FF3303
:103FC000642206A92800FDF713FB06A806F0BAFD37
:103FD000210019226A3106A809F08FFF052200246A
:103FE000110006AB04A806F0E1FD04A905A806F03F
:103FF000B6FD2300220028000194009405A9FDF7D6
:1040000061FA05A806F09EFD21002800FDF71EFBC1
:1040100005340520FDF77AFDFF2CF5D1FA2080004C
:10402000FDF774FD04A806F08DFD03A806F08AFDD7
:1040300029B030BDA7F60000F0B59B4B95B00592B6
:104040001A68082304000391D16C06A80B43D364BB
:104050009649FFF765F9964907A8FFF761F922002D
:1040600000250DAE30001C3206A907F0B0FC31006F
:1040700007AA08A807F0ABFC300007F03CFC631C63
:10408000DD77A06807F092FB03685B6998477019B9
:10409000073507F009FE1C2DF9D180230BADDB009D
:1040A000A068AB800B9607F081FB036829005B6D6D
:1040B0009847A06807F07AFB036800219B6D98473A
:1040C000A06807F073FB0700002506000A371F22CF
:1040D0000021380009F0F8FE3000FD7707F0D1FD2F
:1040E0000621A06807F064FE089A09219378A06869
:1040F000043207F070FEA06807F058FBC821057174
:10410000A068FFF74DFCA06807F050FBFF27058172
:10411000A06807F04BFB07F0BDFD0398FDF764F9BD
:104120002000FDF759FC20000399FFF731FF200024
:10413000039907F0B4FE04956269012316001E403E
:104140001A422DD05B4909A8FDF7D0FE09A90AA89B
:1041500006F005FD00220AA91300019200920398BF
:10416000FDF7B0F90AA806F0EDFC049B002B4CD13A
:10417000043F282F4BDC039806F091FB002F49DC0D
:10418000059807F0C8FE002805D001226369934313
:10419000033213436361002509A806F0D3FC04969B
:1041A00004226369134239D0FF210398FDF74EFAC8
:1041B00000250226A36902229B5EAB4218DD200087
:1041C00029B2183007F019FC0023010003981A00E7
:1041D0007430FDF7DBFEC8208000FDF797FC0398E4
:1041E00006F05DFBC820FDF791FC6369334213D0F4
:1041F000FA208000FDF78AFC636900259A070FD436
:104200006420FDF783FC012596E70437B1E700261B
:10421000FE2FB5DC049EB3E70135CBE79A073AD50C
:1042200008221E00164013421FD0234909A8FDF79B
:104230005DFE09A90AA806F092FC00220AA9130053
:10424000019200920398FDF73DF90AA806F07AFC66
:104250001A48FDF75BFC09A806F074FC6420FDF722
:1042600055FC174D06F0A8F966E7164909A8FDF7B1
:104270003DFE09A90AA806F072FC330032000AA923
:10428000039801960096FDF71DF90AA806F05AFC5E
:1042900009A806F057FC6420FDF738FC0A4B0135ED
:1042A0009D4200DC48E7DDE70C010020C0F500007E
:1042B000D0F50000D2F5000017F60000983A000093
:1042C0008D0A000054F600008B0A000070B5C36927
:1042D000C1681A68451D0400EB7F8AB0114245D0C1
:1042E000002B59D1EB7FA279012B23D801231A424D
:1042F00020D000250222A188A57102A806F0DEFACE
:10430000A31DDE7F012E15D1FEF77AFB2B00226A5A
:10431000801A994100900191019BA188AB4204D180
:10432000FA23009A9B009A4238D30123042206A85C
:1043300006F0C4FA0322A3791340012B14D1FEF72F
:104340005FFB0023226A801A9941994202D1154BE2
:10435000984209D90223A279A1881343A3710522A7
:10436000012306A806F0AAFA0AB070BD0B2B01D8EB
:104370000133EB77EA7FA379082AB3D901221342EC
:10438000D8D11343A188A37106A8130006F096FAAA
:10439000FEF736FB2062A5E7013BEAE73300032284
:1043A000C5E7C046DB05000010B50400024B036002
:1043B000FEF75CFB200010BDBCE90000F0B5060074
:1043C00000250F00040085B002930AAB1B78083665
:1043D00003930F4B29000360019285808571182299
:1043E000300009F071FD39003000039A07F01FFA20
:1043F000019B029AA380A31DE771DA77631D2562F2
:104400002000DD77FEF714FB200005B0F0BDC046AC
:10441000BCE90000F0B587B001930EAB1B88060025
:1044200003930D9B0D000093019B0C9F0292002BA8
:104430003DD0002F02D1009BDB0738D5302004F09F
:1044400017FE0400103006F02FFA2000243006F08A
:10445000E8FA029B25806380182004F009FE05001D
:10446000009B08220593019B002103600C300497F8
:1044700009F02AFD082204A9281D09F03EFD0D4B74
:1044800002226B6100230399E3602362E3623368D5
:104490000A43300021005B68A560A280984700288D
:1044A00005D0200006F0C0FC200004F0D9FD07B0C4
:1044B000F0BDC0461FBF000070B58CB08360109B7C
:1044C00001604260C36004001849180006F0CDFF87
:1044D000051E14D001001C22103105A809F00DFDA5
:1044E0006A4608AB43CB43C21B681360206805993A
:1044F000069A079B07F06BFF280004F0B1FD0C4BF8
:10450000186800280ED00B4A05AB059200220692CF
:10451000C03202926A4622CB22C223000322062125
:10452000FFF778FF20000CB070BDC0462AF70000EE
:10453000D00000203945000082B0F0B50400E9B099
:1045400064206F936E9207F008F905220CA8110001
:1045500006F025FB90490DA8FDF7C8FC192500229F
:104560001DAB013D1A605A609A600C33002DF8D1E2
:104570001522290010A80F9509F0A6FCA06806F0E6
:104580008CF9FF210B90A068FDF760F8A068FCF79C
:104590002BFF0A950795A06806F081F9A5687F4969
:1045A00016A8FEF7BDFE782216A92800FCF7BCFF6E
:1045B00016A807F0A0F97A4B089300230993032269
:1045C0000A9B606801331A400A9207F007FB050056
:1045D000606807F00AFB0022724B05929D4210DBD7
:1045E000013205922A00C8320BDBAA220421920074
:1045F0000591954205DC02220592C82D01DD0132AC
:10460000059200220692984210DB012306930300D4
:10461000C8330BDBAA2304329B000692984205DCC8
:1046200002230693C82801DD013306930CA806F087
:10463000ADFA5D4D00262F000FABF35C012B05D1C9
:104640007A783978FE330CA8FDF7E4FB013602379F
:10465000192EF1D16B4618229A5E6B460CA81421D4
:10466000595E0A9BFDF7D6FB089B002B02DB099BDA
:104670000F2B07D90023A0681A00743000930CA9EF
:1046800006F09AFA01270FAE2B78059A934218D1BB
:104690006B78069A934214D13378012B11D00C23F6
:1046A000079A216853431DAAD018002207F0A7FEDD
:1046B000079B37700133DBB20793099B0133DBB2F1
:1046C00009933A4B02350136AB42DDD1642007F045
:1046D00044F8089B643B1BB20893079B182B0FD828
:1046E000334B089A9A4200DA55E7089B002B03D017
:1046F000099B0F2B00D062E7A068FCF775FE5EE710
:104700001DA916A8079A07F0FCFD6A4619AB23CB32
:1047100023C21B6813601699179A189B206807F02C
:1047200056FEE568002D0CD022490EA8FEF7F8FDD4
:104730001C23280016AA0EA906F0CBFE0EA807F02F
:10474000DAF8A06806F0ABF80DA90EA8A56806F087
:1047500006FA0022184B00920EA9019328001300BC
:10476000FCF786FE0EA806F0EDF9FA20800006F0B0
:10477000F4FFA06806F093F80B99A068FCF766FFB9
:104780000DA806F0DFF90CA806F0DCF969B0F0BC62
:1047900008BC02B01847C04635F700007AF70000A1
:1047A0008C3C000058FDFFFF8FF70000C1F70000B0
:1047B000D18AFFFF2AF70000DC050000004870479F
:1047C00016FCFFFF10B53320FCF798FB004810BD26
:1047D00016FCFFFF002310B50400838083710C4892
:1047E000216420608020C000A061E061206211008F
:1047F0002000E360236163616362A362E362236379
:104800006363A363E363636407F0D0FD200010BD1E
:10481000D4E90000F0B54F4F97B03B680500059311
:10482000002B3DD11C2282210B3306A80AACFDF7D8
:10483000EDFD0EAE0B231D2283212000FDF7E6FDCA
:104840000B231B2284213000FDF7E0FD082004F03B
:104850000FFC0122059B1100049008F074FA1D2141
:10486000280008F009FC002823D0602004F000FC98
:10487000A38812AA9380A379A1689371364B06008E
:1048800012930E23E356916093730623A1899181BD
:104890000193173300932900049B02F0B9FD3E6099
:1048A0002E4B2C4A1B681068002B00D0436417B0B5
:1048B000F0BD3C21280008F0C8FB00281AD0602079
:1048C00004F0D6FBA38812AA9380A379A168937100
:1048D000214B060012930E23E35691609373062337
:1048E000A18991810193363300932900049B02F042
:1048F000CFFCD4E73C21280008F0B8FA002820D0EB
:10490000A42004F0B5FBB38812AA9380B379040005
:104910009371114BB16812930E23F3569160937308
:104920000623B18991810293013B019337330093B0
:104930002900049B02F0DEF9084B1C6044343C6003
:10494000AEE7482004F094FB062204990400FFF728
:1049500041FFF4E73C02002010E80000280200209C
:1049600010B5041E0ED009F061FD01382018A042D8
:1049700001D8002010BD22780178013821704270E2
:104980000134F4E70048F5E717FCFFFFF0B5070036
:104990000D0085B0002925D00026C3171C1A5C40E5
:1049A0004B1E0393200002960A210136019609F05E
:1049B0006CFA039B49423031200099550A2109F0D5
:1049C00071FA041EEED1002F04DA2D23029E019A03
:1049D0000236AB5400232800AB55FFF7C1FF20007F
:1049E00005B0F0BD004CFAE717FCFFFF5C4BF0B5DB
:1049F0000360816004002520A9B002AB102203915E
:104A0000C018002109F060FA01230BAD2B700023C0
:104A1000544A0133013A112B00D097E0252102AA14
:104A200020339B181A785B7813AE1B0213432200C5
:104A3000738202ABC91845230C32029202A82A786D
:104A40001B1818003270102209F057FA029B6421DB
:104A500018930A230025012702AA521813705B1825
:104A600002AA9B1829000C221EA81D7019973777DF
:104A7000F5831C95358509F027FA3B4B0C2229005C
:104A800023A82193229509F01FFA384B02AA2693F6
:104A900046239B1803221120DA7702ABC0182900A5
:104AA00025730D322795059609F00EFA02AB1F7497
:104AB0002F4B0135013B112D4BD11D2311212520F9
:104AC00002AA9B181A785B780BAD1B02134302AA4B
:104AD000127C6B8202ABC9182A70C018102209F030
:104AE0000CFA012300272B7505AB11930398AF83B4
:104AF00006F060FE036829001B68984713ABDB8B48
:104B0000A068A38206F056FE0368A18A0097029A65
:104B1000DD680123A847A06806F04CFE06001420BB
:104B200004F0A6FA012305000761082210C006A9B7
:104B30000793069709F0E1F90E4BEB60B369BB42AE
:104B400000D02B612000B56129B0F0BD117CE95483
:104B50005FE710201A7C02A909184A55A9E7C04648
:104B600000EA0000C1F7000017BC000009BC00000B
:104B7000D1F7000041C40000F0B500240500734BDC
:104B8000DBB003608160C26071492200848084715F
:104B900045A807F013FD2B001433012704260893C2
:104BA0001223089A049701930096230045A90394C1
:104BB00002941BA8FEF7AEFE2200664945A807F046
:104BC000FDFC0C232A000497103201930096230069
:104BD00045A90394029430A8FEF79CFE22005E498A
:104BE00013A807F0EBFC29001C31099108212300D0
:104BF000099A04970191009613A90394029445A879
:104C0000FEF788FE542004F033FA220006005349D0
:104C100013A807F0D3FC2900122204231831300016
:104C200007910497019200930A00230013A90394AB
:104C30000294FEF76FFE3000494B0822AE62F56227
:104C400013A930301393149409F057F93200454BEF
:104C50002932B36309991770079804222C61EC611B
:104C600009F04BF904220799089809F046F95E22E9
:104C7000032304A95218D377B2225218D3770A001B
:104C80000732FF32D377B21CD3771BAA0A9230AA1D
:104C90000B9245AA34490C92AC8522000EA80D96C1
:104CA00007F08CFC28213D2004AA521813781431F7
:104CB00004AA5218137004AA538F12315218138089
:104CC000253904ABC9181022C01809F016F9502173
:104CD000042304AA52181370582204AB9B180AAF7D
:104CE0001997A8681C8006F065FD036813A91B6866
:104CF00098477A2204AB9B181B8854322B8404AB50
:104D00009B181B885432AB8404AB9B181B88A86883
:104D10006B8406F04FFD0700142004F0A9F906008B
:104D2000124B0461082220C00EA90E930F9409F0C3
:104D3000E4F80F4BF360BB69A34200D03361280055
:104D4000BE61FCF749FE28005BB0F0BD0CEA000034
:104D500011F8000001F80000E1F70000F1F7000091
:104D60008FC50000BFC4000021F800003D4E0000C8
:104D7000E9C40000F0B5040085B01F000CAB1B882F
:104D8000103001930E00150005F08EFD2000243038
:104D900005F047FE26806580182004F069F9082692
:104DA000050032000AA902A809F0A7F8280032007D
:104DB00000212F600C3009F087F8320002A9281D6D
:104DC00009F09BF8064B022220006B610023019939
:104DD000A5600A43E360A2802362E36205B0F0BDF0
:104DE00013C5000070B5040092B08068FEF7E4F8C7
:104DF000826D0223110019401A421AD1A38D002B93
:104E000017D00D4AE56804921022A18502926A46E5
:104E1000059104AB41CB41C20A00230006A8FFF76D
:104E2000A9FF2B6828009B6806A9984706A805F0EB
:104E3000FBFF12B070BDC04653C50000F0B54B88F3
:104E4000828C06000D89CC688DB09A420CD1032D5E
:104E500001DC0DB0F0BD62882188012308A805F0AF
:104E60002DFD043D0434F2E7428C9A42F1D1032D2A
:104E7000EFDDF36830200593238808AF069363883D
:104E80000793114B08930023099304F0F1F8C02312
:104E900002936B46049006CF06C333000699079A27
:104EA0000498FFF767FF059B04991B6805985B68EA
:104EB0009847002805D0049805F0B6FF049804F040
:104EC000CFF8043D0434D2E753C50000022802D1D4
:104ED0000122014B1A7070478204002070B5064D04
:104EE00004002B78002B04D1044800F0CBFD0123F3
:104EF0002B70200070BDC04683040020CD4E000002
:104F000070B50C0005F046FB002810D00023134DAF
:104F1000A40A2B70200007F079FB002803D00A2098
:104F200006F01BFCF6E72B78002BFCD070BD0221AD
:104F30000B4B0C4A99508021C90058580028FCD0CE
:104F4000A120C0001C5058580028FCD000219950C6
:104F50008021C9005A58002AFCD0E7E782040020CB
:104F600000E0014004050000F8B50E0017001D0028
:104F700005F010FB002811D00023174C23702A00E5
:104F80003900300007F040FB002803D00A2006F06B
:104F9000E4FBF4E72378002BFCD0F8BD012380224A
:104FA0000E4C0F49D2006350A358002BFCD00023B5
:104FB0009D4207DC002363508023DB00E358002B75
:104FC000FAD0EAE798003A5832508022D200A0582E
:104FD0000028FAD00133EBE78204002000E0014012
:104FE00004050000F7B5FA26294B0189B600040034
:104FF00071431800019308F04DF8310008F0C0FC2F
:10500000244FA17A2081380008F044F82500A072CE
:10501000583500232A222978606C05F07AFD002893
:1050200001D01D48FEBD10232B222978606C05F0AD
:1050300070FD0028F5D101232D222978606C05F040
:1050400068FD0028EDD101232E222978606C05F03F
:1050500060FD0028E5D1A17A380008F016F80E228C
:10506000C3B22978606C05F054FD0028D9D121899C
:105070000198714308F009F8012303432A22297893
:10508000606CDBB205F045FD0028CBD0C9E7C04617
:1050900050EA000098EA00000EFCFFFF30B504253E
:1050A0008379040085B02B4204D1FCF795FCA379E9
:1050B0001D43A57120004830FDF7FAF9002802D001
:1050C000002005B030BD230058331978062302AD07
:1050D000009301222B00606CFCF762FE002801D0D7
:1050E0000B48EEE700200421022228566956AA56F2
:1050F000A37A58435A434B43D200DB005242236207
:105100002368A261C2009B6A2000E2619847D7E74A
:105110000EFCFFFF10B50400024B036006F0BFFC5D
:10512000200010BD24EA0000F8B504000F001900AB
:1051300006AB1E8807AB15001A88FEF73DF90F4B2A
:10514000676423602300AA8848339A80AA799A71F9
:105150000B4AA968A2640E22AA5621652100A889DB
:10516000543108809A730023A371230058331E80A2
:105170002000FFF737FF2000F8BDC04624EA0000FA
:1051800010E8000000487047FFFF0000F0B597B03E
:105190000593036807AC1B68049103931100230077
:1051A0000600A1C9A1C30025D36829000C220CA8C0
:1051B0000A930B9508F088FE35200B4B11AF0F9327
:1051C00004AB29001022C01810953D7008F07CFE39
:1051D000059B7D822200009330000499039C019777
:1051E0000CABA04717B0F0BD55C70000FC3070B540
:1051F000046C0500002C0DD1242003F039FF064B70
:1052000044608361054B8460C46004614461C4618F
:1052100003602864286C70BD8CEB000074EC000007
:10522000FC3070B5C56B0400002D11D1342003F0A3
:105230001FFF084B85604360074B45610361074BC7
:105240000562C361064BC5628362064BE06303607F
:10525000E06B70BDBCEB0000ACEB00001CEC000090
:105260002CEC00003CEC0000064B70B50400036021
:105270004068002801D1200070BD056903F0F0FEF0
:105280002800F6E7F0EA0000064B70B50400036062
:105290004068002801D1200070BD056903F0E0FEE0
:1052A0002800F6E7C0EA0000064B70B50400036072
:1052B0004068002801D1200070BD056903F0D0FED0
:1052C0002800F6E7D0EA0000064B70B50400036042
:1052D0004068002801D1200070BD056903F0C0FEC0
:1052E0002800F6E7E0EA0000064B70B50400036012
:1052F0004068002801D1200070BD056903F0B0FEB0
:105300002800F6E78CEB0000064B70B50400036044
:105310004068002801D1200070BD056903F0A0FE9F
:105320002800F6E7DCEB0000064B70B504000360D4
:105330004068002801D1200070BD056903F090FE8F
:105340002800F6E79CEB0000064B70B504000360F4
:105350004068002801D1200070BD056903F080FE7F
:105360002800F6E7CCEB0000064B70B504000360A4
:105370004068002801D1200070BD056903F070FE6F
:105380002800F6E72CEC0000064B70B50400036023
:105390004068002801D1200070BD056903F060FE5F
:1053A0002800F6E71CEC00007FB503791448002BB9
:1053B00021D0144E144C3378002B1BD102AD2800A1
:1053C00007F0A5F9002810D16B88592B0DD12B7847
:1053D000A988DA1F012A10D80C4A00912000202148
:1053E00004F0D0F80123337004E0202220000849A3
:1053F00004F022F9200004B070BD064AEDE7C04673
:1054000031F80000840400208504002053F80000D7
:105410004BF8000070F80000FC3070B5046C05001B
:10542000002C0DD1242003F023FE064B4460836141
:10543000054B8460C46004614461C46103602864F6
:10544000286C70BD8CEB000074EC0000802270B5FD
:105450000400114B451C0360104B5200C360104BFD
:10546000FF358350280006F0EDF82800FDF7BEFC5C
:1054700020000C4BB830E360FFF7F6FE2000AC30A4
:10548000FFF722FF2000A030FFF70EFF20006C3056
:10549000FFF7FAFE200070BDA8EC00006CEF0000E2
:1054A00000E9000000EB0000F8B505000400AC3591
:1054B0006868A86000283BD16868002840D12200B5
:1054C00003215832137868608B43137023005C33D8
:1054D000187020000A3007F07DFA2000343007F001
:1054E00079FA606E002830D12500943560666868CE
:1054F00000282FD12600A03668607568002D2ED1B7
:105500002000290075600C226C3008F0DDFC2000C2
:10551000164BE5672900A3670C22803008F0D4FC05
:105520002300134A8C33903428001A602560F8BD9C
:10553000C36821009847AB68002BB9D01869B8E759
:10554000066903F08DFD3000B7E7056903F088FDBB
:105550002800C7E7066903F083FD3000C8E72F691C
:10556000280003F07DFD3D00C8E7C04639C70000B4
:105570002BC70000414BF0B50360414B06000025EE
:10558000C360A0230400163685B02900057185602C
:105590000574438285821F22300008F095FC802725
:1055A00080212000BF00C90137842B000A00F57755
:1055B0003830009501F0DEFB2300403329001F2224
:1055C0001800039308F080FC039B2200DD77230082
:1055D0000321643260331F80137820008B431370E3
:1055E000230068331D70274B2900E3660C222567D2
:1055F000783008F069FC2300270088331D60224BB7
:105600000837FB67843729000C22380008F05CFC5F
:105610001E4B1F4AFB602300A0333D611A601D4AE8
:105620005D60DA601C4A1D619A61DD61300007F03F
:10563000D1F9039807F0CEF9184B601CE360230002
:10564000C4331D809D70FF30FDF7BCFB8C235B00D5
:10565000E550230080221933FF335D61104B520067
:10566000A35023002000023AFE33FF3A5A86023B41
:105670009D63DD631D6405B0F0BDC046A8EC00006D
:1056800000EB0000C0EA000039C700002BC7000093
:10569000D0EA0000E0EA0000F0EA00006CEF000051
:1056A00014E9000070B5074D2B68002B07D1A0202E
:1056B000400003F0DDFC0400FFF75CFF2C6028686D
:1056C00070BDC0464002002070B50C220D000021C4
:1056D000040008F0F9FB00232361024B2000256041
:1056E000E36070BD47C7000070B500250400204B83
:1056F000290003601F4B858083601F4BC560436199
:105700001E4B856103621E4B4562C3621D4B0563E0
:105710008363C5634430FFF7D7FF2000290058306A
:10572000FFF7D2FF200029006C30FFF7CDFF2000EB
:10573000154B290023607822803008F0C5FB20003B
:105740002900F022F83008F0BFFB2000E9302900E2
:105750005022FF3008F0B8FB8E239B00E5540B4B22
:1057600029002822E01808F0AFFB200070BDC046D9
:10577000ECEB00009CEB0000ACEB0000BCEB00008D
:10578000CCEB0000DCEB0000F8EF00003A02000078
:1057900010B50400024B036007F04AF9200010BD69
:1057A000ACEB000010B50400024B036007F055F9A4
:1057B000200010BDBCEB0000F0B5264B85B01B7877
:1057C000DAB20192002B42D0234D244E2F687C4246
:1057D0007C413368E4B2002B04D003A807F0E8F959
:1057E00005281AD1002F32D0019C1D4B1D4F1B885C
:1057F00002AA3868938003A907F0E0F905281ED0B3
:10580000002818D00022110000F092F9002CEBD1F2
:1058100003A807F0CDF90528E6D0002807D000221C
:10582000110000F085F9002C0BD10024DDE733686E
:1058300003989847F7E72B6838689847E6E7002C05
:1058400005D103A807F0B4F9019C0528E5D105B0FE
:10585000F0BDC046A50400204802002044020020FC
:10586000060400204C02002070B504000720002927
:1058700013D08D0711D109480160094920000A8021
:10588000084A0949136007F095F9002805D101225B
:10589000064B16301A7007F089F970BD4C020020D3
:1058A0000604002050020020C1CB0000A504002007
:1058B00010B507F081F903005A1E9341014ADBB28B
:1058C000137010BDA504002003000E20002B02D091
:1058D0000020014A136070474802002003000E2098
:1058E000002B02D00020014A1360704744020020C0
:1058F00010B5040002F080FC034B1B68002B01D0A4
:105900002000984710BDC0469C020020F0B58BB027
:10591000050000F043FE0020FFF7C4FE0368070007
:105920001B6998473B6804009B69380098473B68AF
:1059300002905B6A380098470300288810380B28CB
:1059400030D803F0B9FC063D2F2F2F592F2F2F6091
:105950002F71AF882000390007F026FD22000223B6
:1059600058321678A8793343697B137004AB1F80D3
:10597000012304AA93702B00D07091721633062273
:10598000E91D05A8099308F0B8FA29000B2004AB1B
:1059900006220E31C01808F0B0FA94346068A06096
:1059A000002805D12900029807F0B7FD0BB0F0BD23
:1059B000C36804A99847A368002BEFD01869EEE7E5
:1059C00020002A49AF8807F0EFFC2200022058325D
:1059D0001378A9798343137004AB1F809970A034A6
:1059E0006068A0600028DDD0C36804A99847A36858
:1059F000002BF5D01869F4E75B69A888002BD1D09B
:105A0000A91D9847CEE7606E0028CBD0AF79A0667D
:105A10000028C7D0C36839009847A36E002B01D176
:105A2000606EF4E71869F2E701220D27AE7BEF57AD
:105A3000324001927207930FE91D062204A80393D6
:105A400008F05BFA019A04ABDA716A46127BF60839
:105A50009F715E721A722B0020000F338C340793F3
:105A60008030236804A998479CE7C046FFFF0000E8
:105A700003000720D72B02D90020014A136070478A
:105A8000A0020020014B18607047C0469C02002015
:105A90001FB58022A323D205DB00D3580D20DB07DE
:105AA00000D5053848221B4B1B49FFF7DDFE0028B7
:105AB0000AD080B2002807D1BFF34F8F174B184A86
:105AC000DA60BFF34F8FFEE701230293154B02A864
:105AD0001B68039307F0C5F8002802D0072005B023
